:020000040800F2
:100000000090002071260008352600083D260008D3
:1000100000000000000000000000000000000000E0
:10002000000000000000000000000000452600085D
:1000300000000000000000004F26000859260008BC
:10004000C126000800000000C1260008C1260008E3
:10005000C1260008C1260008C1260008C1260008E4
:1000600000000000C1260008C1260008C1260008C3
:10007000C1260008C1260008C126000800000000B3
:10008000C1260008C1260008C1260008C1260008B4
:10009000C1260008C1260008C1260008C1260008A4
:1000A000C1260008C1260008C1260008C126000894
:0800B000C1260008C12600086A
:1000B80010B5064C2378002B07D1054B002B02D036
:1000C800044800E000BF0123237010BD0C0000208D
:1000D8000000000000370008044B10B5002B03D0C7
:1000E8000349044800E000BF10BDC04600000000FE
:1000F8001000002000370008002243088B4274D308
:1001080003098B425FD3030A8B4244D3030B8B4210
:1001180028D3030C8B420DD3FF22090212BA030C19
:100128008B4202D31212090265D0030B8B4219D3FA
:1001380000E0090AC30B8B4201D3CB03C01A52411A
:10014800830B8B4201D38B03C01A5241430B8B4262
:1001580001D34B03C01A5241030B8B4201D30B034B
:10016800C01A5241C30A8B4201D3CB02C01A524172
:10017800830A8B4201D38B02C01A5241430A8B4235
:1001880001D34B02C01A5241030A8B4201D30B021E
:10019800C01A5241CDD2C3098B4201D3CB01C01A38
:1001A800524183098B4201D38B01C01A5241430942
:1001B8008B4201D34B01C01A524103098B4201D330
:1001C8000B01C01A5241C3088B4201D3CB00C01A9D
:1001D800524183088B4201D38B00C01A5241430815
:1001E8008B4201D34B00C01A5241411A00D201463A
:1001F800524110467047FFE701B5002000F0F0F8C3
:1002080002BDC0460029F7D076E7704703460B4386
:100218007FD4002243088B4274D303098B425FD3F7
:10022800030A8B4244D3030B8B4228D3030C8B4223
:100238000DD3FF22090212BA030C8B4202D3121209
:10024800090265D0030B8B4219D300E0090AC30BDE
:100258008B4201D3CB03C01A5241830B8B4201D38B
:100268008B03C01A5241430B8B4201D34B03C01A74
:100278005241030B8B4201D30B03C01A5241C30AEC
:100288008B4201D3CB02C01A5241830A8B4201D35D
:100298008B02C01A5241430A8B4201D34B02C01A47
:1002A8005241030A8B4201D30B02C01A5241CDD2EC
:1002B800C3098B4201D3CB01C01A524183098B4237
:1002C80001D38B01C01A524143098B4201D34B0120
:1002D800C01A524103098B4201D30B01C01A524183
:1002E800C3088B4201D3CB00C01A524183088B420A
:1002F80001D38B00C01A524143088B4201D34B00F3
:10030800C01A5241411A00D2014652411046704764
:100318005DE0CA0F00D04942031000D34042534069
:1003280000229C4603098B422DD3030A8B4212D329
:10033800FC22890112BA030A8B420CD3890192115B
:100348008B4208D3890192118B4204D389013AD098
:10035800921100E08909C3098B4201D3CB01C01A6D
:10036800524183098B4201D38B01C01A5241430980
:100378008B4201D34B01C01A524103098B4201D36E
:100388000B01C01A5241C3088B4201D3CB00C01ADB
:10039800524183088B4201D38B00C01A5241D9D2F3
:1003A80043088B4201D34B00C01A5241411A00D274
:1003B8000146634652415B10104601D34042002B70
:1003C80000D54942704763465B1000D3404201B5EF
:1003D800002000F005F802BD0029F8D016E77047A4
:1003E8007047C0468446100062468C461900634632
:1003F80000E0C0461FB500F069FC002801D40021C8
:10040800C8421FBD10B500F0ADFB4042013010BD21
:1004180010B500F05BFC002801DB002010BD0120B6
:1004280010BDC04610B500F051FC002801DD0020C9
:1004380010BD012010BDC04610B500F0D7FB002844
:1004480001DC002010BD012010BDC04610B500F031
:10045800CDFB002801DA002010BD012010BDC046E8
:10046800844608006146FFE71FB500F0B9F9002887
:1004780001D40021C8421FBD10B500F041F9404227
:10048800013010BD10B500F0ABF9002801DB0020E9
:1004980010BD012010BDC04610B500F0A1F900281C
:1004A80001DD002010BD012010BDC04610B500F0D0
:1004B8004FF9002801DC002010BD012010BDC04606
:1004C80010B500F045F9002801DA002010BD012020
:1004D80010BDC046F0B546464F46D6464502C0B5A3
:1004E800C30F470098460E1C6D0A3F0E5BD0FF2FC6
:1004F80021D08023ED00DB041D43002399469A4652
:100508007F3F74027300640A1B0EF60F002B20D085
:10051800FF2B43D080220020E400D20414437F3B09
:100528004246FF1A4B4672400F2B00D99DE0714995
:100538009B00CB589F46002D5AD108239946063B6D
:1005480074029A467300FF27640A1B0EF60F002BED
:10055800DED1002C3BD10123424649467240194363
:100568000E2918D86448890041588F465346022BF3
:1005780000D1B8E0032B6ED042462C00012B40D1AD
:1005880000200024C0052043D2071043E0BCBA462F
:10059800B146A846F0BDFF200024F3E7002C20D187
:1005A8000223FF3FD8E7002D05D104239946033BDA
:1005B80000279A46A5E7280000F03EFC7627431F4F
:1005C8009D4000237F4299469A463F1A99E72000AA
:1005D80000F032FC431F9C4076235B421B1A00202C
:1005E8009EE703234A461A4391460320FC3397E7C4
:1005F8000C239946093BFF279A4682E703282CD00B
:10060800320038007F30002847DD630704D00F230D
:100618002340042B00D00434230103D53800374B82
:1006280080301C40FE28B6DCA401640AC0B2A9E7E9
:1006380080240022FF20E403A4E78023DB031D427B
:1006480001D01C420BD08024E4032C4364024246B0
:10065800FF20640A96E746462C008023DB031C43F0
:1006680064023200FF20640A8CE76D016001854254
:100678002DD21B230024013F0126290064006D00B0
:10068800002901DB854201D32D1A3443013B002B9D
:10069800F3D16B1E9D412C43B3E701231B1A1B2B7F
:1006A80000DD6DE721009E37D940BC400B00611E7C
:1006B8008C412343590704D00F211940042900D045
:1006C8000433590113D49B0100205C0A5AE71A230A
:1006D80001242D1AD0E7981E434258414042320067
:1006E8000024C0B24EE74246FF2000244AE701201A
:1006F800002447E71837000858370008FFFFFFF7BE
:1007080070B542004E024C0045026D0A120EC30F2E
:10071800760A240EC90FFF2A10D0FF2C0CD0012016
:10072800A2420AD1B54208D18B420FD0002A04D187
:100738002800431E984100E0012070BD0120FF2CD5
:10074800FBD13543F9D14B401800F6E70020F4E718
:1007580030B5420044024D02C30F4800640A120E2D
:100768006D0A000EC90FFF2A18D0FF280AD0002AE8
:100778001ED100280AD1002D29D0002C2DD14800E7
:10078800013830BD002D25D1002A01D1002CF6D02A
:100798008B4219D001205B421843F2E7002C19D193
:1007A800FF28F7D1002D15D100208B42F2D1E8E7C0
:1007B8000028EFD08B42EDD18242EBDC04DBAC4267
:1007C800E8D80020AC42DCD258000138D9E7002C28
:1007D800D7D0DFE702204042D3E78B42DAD1EEE7F9
:1007E80030B5420044024D02C30F4800640A120E9D
:1007F8006D0A000EC90FFF2A17D0FF280AD0002A59
:100808001BD100280AD1002D1DD0002C2DD1480065
:10081800013811E0002D0ED1002A01D1002CF6D0AC
:100828008B420CD15800013806E0002C03D1FF2878
:1008380005D1002D15D0022030BD002806D1012099
:100848005B421843F8E7002CF6D0F8E78B42F6D164
:100858008242F4DCE6DBAC42F1D80020AC42EBD2B9
:10086800E0E700208B42EAD1E6E78B42E7D1F2E7E6
:10087800F0B54F464646D6464400C0B546020F1C62
:10088800760A240EC50F002C00D1DAE0FF2C74D0B4
:100898008023F600DB041E43002399469A467F3CDA
:1008A8007B025B0A98467B001B0EFF0F002B74D05F
:1008B800FF2B00D18EE042468021D200C9041143AB
:1008C8007F3B2A00E4184B467A408846D2B20A2B6E
:1008D80075DC4B460020022B0FDD494601238B4077
:1008E800A621C9000B4269D1902189000B4200D092
:1008F80000E18821194200D0F5E041460904090CBD
:1009080043460800350C36041B0C360C704369430B
:100918005E435D437618030C9B19994203D98021E5
:1009280049028C46654400041904000C09188E011C
:10093800701E86411B0C890E5B190E439B011E43DA
:100948001B016CD423007F33002B00DCB1E01500C1
:1009580071070BD00F2021003040042806D0043640
:10096800320103D56E4B1E400B008033FE2B00DD99
:10097800BDE0B201520ADBB248E0002E00D092E09E
:1009880008239946063B9A467B025B0A98467B00F9
:10099800FF241B0EFF0F002B8AD14246002A64D188
:1009A80049460132114389460A2908DC7D40012065
:1009B800EAB2022991DC1500002227E0150053460F
:1009C800022B00D193E0032B1AD0012B2CD100234A
:1009D80000221BE04346FF34002B55D003214B4631
:1009E8000B4319000A2B00DC92E00F2B00D08CE09F
:1009F8008022D203164203D04346134200D17DE041
:100A08008022D20332435202520AFF23D805ED074F
:100A180010432843E0BCBA46B146A846F0BD0123BE
:100A2800150071081E400E4323008033611C002B03
:100A380041DD720794D00F223240042A00D08EE79D
:100A48008EE7002E05D104239946033B00249A46DD
:100A580026E7300000F0F0F97624431F9E4000237B
:100A6800644299469A46241A1AE7404600F0E4F987
:100A78004B46241A763C0A2BA1DC434605388340B2
:100A88007D409846EAB224E74A46023313432A00D7
:100A98007A40D2B20A2B92DC49461500002926D0AA
:100AA8009946022019E70C239946093BFF249A46E8
:100AB800F6E6150021000122D31A1B2B00DD86E77C
:100AC8009E3132008E40DA40731E9E4132435307F6
:100AD80004D00F231340042B00D00432530110D547
:100AE8000123002292E73D004646824667E7FF233E
:100AF80000228BE780220025D20386E73D001A43B7
:100B080083E792010023520A80E73D00464677E7D3
:100B18002A0001237A408B400320D2B2E9E6C0467E
:100B2800FFFFFFF741024200C30F490A0020120EDF
:100B38007E2A03DD9D2A02DD094A98187047802025
:100B480000040143952A07DC9620821AD1404842C6
:100B5800002BF3D10800F1E7963A9140F7E7C04639
:100B6800FFFFFF7FF0B55746DE464E464546E0B5E7
:100B78000D000400E80F83460903D80F090B8246CD
:100B880019488C461F0369005E00490D3F0B760D1E
:100B9800814218D086420FD00120B1420DD1BC4508
:100BA8000BD1944209D1D3451CD0002905D1604608
:100BB8002043431E984100E00120F0BCBB46B246EA
:100BC800A946A046F0BD01208E42F6D161463943C0
:100BD8000F0017432743F0D15B465246981A431E2D
:100BE8009841EAE70020E8E7FF070000F0B557461C
:100BF8004E464546DE46E0B50D000E034900490D58
:100C08008A46DF0FE90FBC4683B02F4F04008046A9
:100C18000191580019039146360B090B400DBA454E
:100C28001DD0B8420DD05746002F2AD13443002892
:100C380024D10A4336D0002C41D1634658000138EC
:100C480015E0114338D15346002B01D12643F4D087
:100C5800019B634507D1019B5800013807E02643F3
:100C68002AD1504521D00120019B5F42384303B06F
:100C7800F0BCBB46B246A946A046F0BD002CDCD06D
:100C8800E6E70028EFD0019B6345ECD18245EADC1A
:100C9800E1DB8E42E7D8DED1C845E4D80020C8455C
:100CA800E5D2D8E7002CE2D0DDE7114304D1019B5F
:100CB8006345D8D10020DAE702204042D7E7019BFC
:100CC8006345E6D0CFE7C046FF070000F0B55746BA
:100CD8004E464546DE46E0B50D000E034900490D77
:100CE8008A46DF0FE90FBC4683B02E4F04008046CA
:100CF8000191580019039146360B090B400DBA456E
:100D08001ED0B8420DD05746002F27D134430028B3
:100D180033D10A4334D0002C40D1634658000138FF
:100D280015E0114312D15346002B01D12643F4D0CC
:100D3800019B63451DD00120019B5F42384306E0BB
:100D4800264303D15045F6D111431CD0022003B0ED
:100D5800F0BCBB46B246A946A046F0BD0028EAD082
:100D6800019B6345E7D18245E5DC02DB8E42E2D890
:100D78000ED0019B58000138E9E7002CCDD0D7E709
:100D8800002CE4D0D7E7019B00206345DFD0D2E7F1
:100D9800C845D0D80020C845D9D2EAE7019B6345A9
:100DA800E4D0C8E7FF07000070B542024300C40F53
:100DB800FE201B0E591C550A08420CD0E021890060
:100DC8008C466D07120B63441B051343E40723434A
:100DD8002800190070BD002B14D1002D1BD028004D
:100DE80000F02AF80A281CDC0B232A001B1ADA4018
:100DF800030015339D400E4B12031B1A5B05120BA3
:100E08005B0DE1E7002D09D0130B802212031A4372
:100E18006D07084BD8E700230022D5E70022054BD1
:100E2800D2E703002A000B3B9A400025E3E7C046BF
:100E380089030000FF0700001C2101231B049842BE
:100E480001D3000C10391B0A984201D3000A083953
:100E58001B09984201D30009043902A2105C40180A
:100E68007047C046040302020101010100000000AE
:100E78000000000080B584B000AF0200FB1D1A70AE
:100E8800FB1D1B781A00164B8021180001F0F5FE97
:100E98008023D900A023DB050022180001F0EDFE15
:100EA8000023FB6002E0FB680133FB60FB68312B29
:100EB800F9DD8023D900A023DB050122180001F009
:100EC800DCFE0023BB6002E0BB680133BB60BB688B
:100ED800312BF9DDC046C046BD4604B080BDC046D2
:100EE8000008005090B585B000AF0400080011005C
:100EF800BB1D221C1A807B1D021C1A703B1D0A1C7C
:100F08001A703B1D1B78002B18D07B1D1B78013BEA
:100F1800FB600FE0BB1D1A88FB681A411300012211
:100F280013405A1E9341DBB21800FFF7A3FFFB687A
:100F3800013BFB60FB68002BECDA17E00023BB6089
:100F48000FE0BB1D1A88BB681A4113000122134029
:100F58005A1E9341DBB21800FFF78CFFBB680133C0
:100F6800BB607B1D1B78BA689A42EADBC046BD4667
:100F780005B090BD80B584B000AF0200FB1D1A70AB
:100F880080231901A023DB050022180001F075FE5B
:100F98000120FFF76FFF0020FFF76CFF0020FFF72D
:100FA80069FF0723FB600FE0FB1D1A78FB681A41F5
:100FB8001300012213405A1E9341DBB21800FFF7B9
:100FC80059FFFB68013BFB60FB68002BECDA002053
:100FD800FFF750FF80231901A023DB050122180029
:100FE80001F04BFEC046BD4604B080BD80B586B05A
:100FF80000AF3B1D180014231A00002102F050FB1B
:101008003B1D01225A603B1D00229A603B1D0022B5
:10101800DA603B1D802212011A603A1DA023DB050D
:101028001100180001F0A8FC3B1D8022D2001A60B4
:101038003A1DA023DB051100180001F09DFC3B1DA3
:1010480080221A603B1D0C4A1900100001F094FC24
:1010580080231901A023DB050122180001F00DFEF1
:101068008023D900A023DB050122180001F005FE2A
:10107800C046BD4606B080BD0008005080B500AF30
:10108800FFF7B4FF0020FFF775FF1820FFF772FF86
:101098002920FFF76FFF0120FFF76CFF0320FFF700
:1010A80069FF00F003F8C046BD4680BD80B582B038
:1010B80000AF00237B6007E0074A7B68D318002253
:1010C8001A707B6801337B607B680F2BF4D9C046AC
:1010D800C046BD4602B080BD2800002080B582B061
:1010E80000AF80231901A023DB050022180001F0BE
:1010F800C4FD012203210520FFF7F4FE0122062189
:101108000020FFF7EFFEFB1D00221A701EE0FB1DFA
:101118001A78BB1D1A498A5C1A70BB1D1B789BB2D2
:101128000F2213409BB2002204211800FFF7DAFEB9
:10113800BB1D1B781B09DBB2002204211800FFF736
:10114800D1FEFB1D1A78FB1D01321A70FB1D1B789E
:101158000F2BDCD980231901A023DB0501221800FD
:1011680001F08BFD00233B6002E03B6801333B60EC
:101178003B68632BF9DDC046C046BD4602B080BD62
:101188002800002090B585B000AF040008001100C9
:10119800FB1D221C1A70BB1D021C1A707B1D0A1C29
:1011A8001A70FB1D1B781F2B4BD80E23FB18FA1D3A
:1011B800127852081A70FB1D1B7801221A400D2064
:1011C8003B18511E8A411A70BB1D1B7801229A4098
:1011D8000F217B181A703B181B78002B05D07B1841
:1011E8007A18127812011A7004E00F22BB18BA1884
:1011F80012781A707B1D1B78002B0ED00E203B181E
:101208001B78124AD15C3B181B780F22BA18127847
:101218000A43D1B20D4AD15414E00E217B181B7831
:101228000A4AD35C5BB20F22BA18127852B2D24380
:1012380052B213405AB27B181B78D1B2034AD15428
:1012480000E0C046BD4605B090BDC046280000205D
:10125800F0B585B000AF040008001100FB1D221C8A
:101268001A70BB1D021C1A707B1D0A1C1A70FB1D0C
:101278001B78002B31D0FB1D1B78082B2DD8BB1DEC
:101288001B78062B29D8FB1D1B785A1EBB1D1C7802
:101298000F25791913481300DB009B1A1B195B00F3
:1012A8001B5C0B70FB1D1B785A1EBB1D1C780E2681
:1012B800B9190C481300DB009B1A1B195B00C318F3
:1012C80001331B780B707B1D1A78BB1919787B19B1
:1012D8001B781800FFF756FF00E0C046BD4605B072
:1012E800F0BDC0469437000890B585B000AF040043
:1012F80008001100FB1D221C1A70BB1D021C1A706D
:101308007B1D0A1C1A700F217B1800221A70BB1D46
:101318001B780222134002D07B1801221A70BB1DD1
:101328001B780422134003D00F23FB1802221A70E3
:10133800BB1D1B780822134003D00F23FB18032280
:101348001A707B1D1A780F23FB181978FB1D1B7860
:101358001800FFF717FFC046BD4605B090BD000056
:1013680090B585B000AF0200FB1D1A70BB1D0A1CAA
:101378001A70BB1D1B78092B02D9BB1D09221A70D4
:101388000F23FB1800221A7016E0BB1D1A780F24D1
:101398003B1919780D481300DB009B1AC3185A5CD7
:1013A8003B191978FB1D1B781800FFF751FF3B19F3
:1013B8001A783B1901321A700F23FB181B78062B79
:1013C800E3D9C046C046BD4605B090BD0438000804
:1013D80080B582B000AF78607A68FA239B009A42A1
:1013E80001DB1B4B7B607B68002B01DA00237B60F1
:1013F8007B6864211800FEF709FF03000A21180022
:10140800FEF7EAFF0B00DBB219000120FFF7A8FF87
:101418007B680A211800FEF7F9FE03000A2118006C
:10142800FEF7DAFF0B00DBB219000220FFF798FF86
:101438007B680A211800FEF7CFFF0B00DBB219000A
:101448000320FFF78DFFC046BD4602B080BDC046F1
:10145800E703000090B585B000AF78607B68632B28
:1014680001DD63237B607B68002B01DA00237B604E
:101478007B680A211800FEF7C9FE03000A2118003C
:10148800FEF7AAFF0B001A000B243B191A707B68A1
:101498000A211800FEF7A0FF0B001A000A23FB1808
:1014A8001A700F203B1800221A703B191A789F49AE
:1014B8001300DB009B1A5B5C002B05D03B183A1825
:1014C800127801210A431A700B23FB181A789749DE
:1014D8001300DB009B1ACB1801331B78002B06D0B6
:1014E8000F22BB18BA18127802210A431A700B236C
:1014F800FB181A788D491300DB009B1ACB180233AE
:101508001B78002B06D00F22BB18BA1812780421BA
:101518000A431A700E203B1800221A700B23FB187E
:101528001A7882491300DB009B1ACB1803331B7807
:10153800002B05D03B183A18127808210A431A7074
:101548000B23FB181A7879491300DB009B1ACB1878
:1015580004331B78002B06D00E22BB18BA18127859
:1015680004210A431A700B23FB181A786F491300D9
:10157800DB009B1ACB1805331B78002B06D00E22F4
:10158800BB18BA18127801210A431A700B23FB18EA
:101598001A7866491300DB009B1ACB1806331B78B0
:1015A800002B06D00E22BB18BA18127802210A4363
:1015B8001A700F23FB181B785BB21B015AB20E235B
:1015C800FB181B785BB213435BB2DAB2584B5A7103
:1015D8000D203B1800221A700A23FB181A78534969
:1015E8001300DB009B1A5B5C002B05D03B183A18F4
:1015F800127801210A431A700A23FB181A784B49FA
:101608001300DB009B1ACB1801331B78002B06D084
:101618000D22BB18BA18127802210A431A700A233D
:10162800FB181A7841491300DB009B1ACB180233C8
:101638001B78002B06D00D22BB18BA18127804218B
:101648000A431A703A4B9A7909217B1812091A70C1
:101658007B181B780822134006D00D22BB18BA1835
:10166800127808210A431A700C203B1800221A70BD
:101678000A23FB181A782D491300DB009B1ACB1894
:1016880003331B78002B05D03B183A181278082131
:101698000A431A700A23FB181A7824491300DB003E
:1016A8009B1ACB1804331B78002B06D00C22BB18CE
:1016B800BA18127804210A431A700A23FB181A78F8
:1016C8001A491300DB009B1ACB1805331B78002B33
:1016D80006D00C22BB18BA18127801210A431A70D6
:1016E8000A23FB181A7811491300DB009B1ACB1840
:1016F80006331B78002B06D00C22BB18BA181278B8
:1017080002210A431A700D23FB181B785BB21B01D8
:101718005AB20C23FB181B785BB213435BB2DAB2E4
:10172800034B9A71C046BD4605B090BD0438000809
:101738002800002080B582B000AF78607A68FA236C
:101748009B009A4201DB1B4B7B607B68002B01DA14
:1017580000237B607B6864211800FEF757FD0300B7
:101768000A211800FEF738FE0B00DBB2190006202C
:10177800FFF7F6FD7B680A211800FEF747FD030016
:101788000A211800FEF728FE0B00DBB2190007201B
:10179800FFF7E6FD7B680A211800FEF71DFE0B0027
:1017A800DBB219000820FFF7DBFDC046BD4602B0DA
:1017B80080BDC046E703000080B582B000AF0023BB
:1017C8007B6007E0084A7B68D318FF221A707B68A1
:1017D80001337B607B680F2BF4D9FFF77FFCC04691
:1017E800BD4602B080BDC0462800002090B585B037
:1017F80000AF0200BB1D1A80BB1D1B88002B02D145
:10180800BB1D32221A80FFF751FC0F23FB18002260
:101818001A7025E00E23FB1800221A7015E00E241A
:101828003B1919780F23FB181B7801221800FFF7C2
:10183800A9FCFFF753FCBB1D1B88180000F0C4FF70
:101848003B191A783B1901321A700E23FB181B78C2
:10185800032BE4D90F217B181A787B1801321A70F0
:101868000F23FB181B781F2BD4D9C046C046BD4692
:1018780005B090BD80B500AF80239B01064A1900D2
:10188800100001F0DDF90300013B5A425341DBB27D
:101898001800BD4680BDC04600080050B0B586B0EF
:1018A80000AF786008001100FB1C021C1A70BB1CFA
:1018B8000A1C1A700E257C19FFF7DCFF0300237041
:1018C8007868FFF771FA604A604BFEF7B5FD031EB2
:1018D80003D17B191B78002B01D0012200E00022E4
:1018E8000D217B181A707B181B781A0002211C2006
:1018F800FFF7FAFC17243B1900221A70544978683C
:10190800FEF7D4FD031E02D03B1901221A7051497B
:101918007868FEF7CBFD031E03D01723FB180222BD
:101928001A707868FFF740FA4B4A4C4BFEF784FD73
:10193800031E03D01723FB1803221A70484978683E
:10194800FEF7B4FD031E03D01723FB1804221A70F8
:1019580000233B6151E01723FB181A780F23FB186B
:101968000121081C3969914201DB0022101C187002
:10197800BB1C1B78002B10D017217B181B783A69E9
:101988009A420AD17B181B78032B06D80F23FB1821
:101998000E22BA1812781A7011E0BB1C1B78002BA3
:1019A8000DD03B69032B0AD11723FB181B78042B96
:1019B80005D10F23FB180E22BA1812781A70244981
:1019C8007868FEF769FD031E08D03B69002B05D136
:1019D8000F23FB180E22BA1812781A7001223B69DD
:1019E8009A401300D9B20F23FB181B781A001D2048
:1019F800FFF77AFC3B6901333B613B69032BAADDA6
:101A0800FB1C1B785A425341DBB21A0002211A20F0
:101A1800FFF76AFCFB1C1B78013B5A425341DBB2BF
:101A28001A0001211A20FFF75FFCFB1C1B78023B00
:101A38005A425341DBB21A0004211A20FFF754FC22
:101A4800C046BD4606B0B0BD9A9999999999254066
:101A580000003041000040413333333333332940F1
:101A68000000584180B582B000AF786001220121A2
:101A78001820FFF739FC01231A1C7B68012B01DCB5
:101A880000231A1CD3B21A0002211820FFF72CFCDD
:101A980001231A1C7B680A2B01DC00231A1CD3B211
:101AA8001A0001211920FFF71FFC01231A1C7B686B
:101AB800282B01DC00231A1CD3B21A00022119209A
:101AC800FFF712FC01231A1C7B68462B01DC00235C
:101AD8001A1CD3B21A0004211920FFF705FC0123B0
:101AE8001A1C7B685A2B01DC00231A1CD3B21A007B
:101AF80008211920FFF7F8FBC046BD4602B080BD9B
:101B080080B588B000AF78603960FFF7CFFA00F091
:101B180051FE0300FB61FB69FA22D1001800FEF7B1
:101B2800EBFA03001A0001231A401B23FB18514249
:101B38004A411A70FB69FA22D1001800FEF7DCFA54
:101B480003001A00032313407B613B68022B00D07B
:101B58002DE17B69032B00D1D5E07B69032B00DDE8
:101B680016E17B69022B67D07B69022B00DD0FE150
:101B78007B69002B03D07B69012B22D008E17B68AD
:101B88009B69181CFEF7CEFF03001800FFF720FC26
:101B9800012204210020FFF7A7FB012204210820CD
:101BA800FFF7A2FB7B681B69181CFEF7BBFF03004D
:101BB8001800FFF7BFFD012204211620FFF794FB50
:101BC800E6E07B68DB69E949181CFEF751FE031C57
:101BD800181CFEF7A7FF03001800FFF7F9FB012206
:101BE80004210020FFF780FB012202210820FFF7D3
:101BF8007BFB012208210520FFF776FB7B681B6A27
:101C0800DA49181CFEF734FE031C181CFEF78AFF7D
:101C180003001800FFF78EFD012201210F20FFF7B6
:101C280063FB012202211620FFF75EFB0122082137
:101C38001320FFF759FBABE07B689A697B68DB6987
:101C4800191C101CFEF714FE031CC949181CFEF7CA
:101C580041FC031C3B61C7493869FEF709FE031CB8
:101C6800181CFEF75FFF03001800FFF7B1FB012205
:101C780004210020FFF738FB012208210120FFF78B
:101C880033FB012204210820FFF72EFB0122022149
:101C98000820FFF729FB012208210320FFF724FB76
:101CA800002208210520FFF71FFB7B685B6AB0490B
:101CB800181CFEF70FFC031CFB60AE49F868FEF722
:101CC800D7FD031C181CFEF72DFF03001800FFF7B3
:101CD80031FD012208210F20FFF706FB0122042114
:101CE8001620FFF701FB012202211620FFF7FCFA5C
:101CF800012208211120FFF7F7FA002208211320FA
:101D0800FFF7F2FA44E07B689B689849181CFEF7D5
:101D1800AFFD031C181CFEF705FF03001800FFF7B2
:101D280057FB012202210120FFF7DEFA00220121E0
:101D38000120FFF7D9FA012204210820FFF7D4FA7D
:101D4800012208210520FFF7CFFA7B68DB68874965
:101D5800181CFEF78DFD031C181CFEF7E3FE03009C
:101D68001800FFF7E7FC012202210F20FFF7BCFA59
:101D7800002201210F20FFF7B7FA012202211620C5
:101D8800FFF7B2FA012208211320FFF7ADFAC04687
:101D98007B69032B00D10DE1012201210120FFF70E
:101DA800A3FA012201210F20FFF79EFA02E13B6806
:101DB800042B2CD03B68042B47DC3B68012B03D059
:101DC8003B68032B32D040E01B23FB181B78002B09
:101DD8000ED07B681B68181CFEF7A4FE03001800D1
:101DE800FFF7F6FA012201210020FFF77DFA2CE027
:101DF8007B689B69181CFEF795FE03001800FFF727
:101E0800E7FA012204210020FFF76EFA1DE07B6843
:101E18009B69181CFEF786FE03001800FFF7D8FA26
:101E2800012204210020FFF75FFA0EE07B681B689F
:101E3800181CFEF777FE03001800FFF7C9FA012205
:101E480001210020FFF750FAC04601220421082092
:101E5800FFF74AFA012201210120FFF745FA3B6802
:101E6800042B65D03B68042B00DD99E03B68012B0F
:101E780003D03B68032B32D092E01B23FB181B785E
:101E8800002B18D07B689B683849181CFEF7F0FCBB
:101E9800031C181CFEF746FE03001800FFF74AFC57
:101EA800012204211620FFF71FFA012202210F2028
:101EB800FFF71AFA74E07B68DB682C49181CFEF7F8
:101EC800D7FC031C181CFEF72DFE03001800FFF7B3
:101ED80031FC012202211620FFF706FA60E01B23DD
:101EE800FB181B78002B0FD07B685B691800FFF785
:101EF80021FC012201211620FFF7F6F90122042115
:101F08000F20FFF7F1F94BE07B68DB681749181CD5
:101F1800FEF7AEFC031C181CFEF704FE03001800B5
:101F2800FFF708FC012202211620FFF7DDF937E050
:101F38001B23FB181B78002B1ED07B689B680B4962
:101F4800181CFEF795FC031C181CFEF7EBFD03009C
:101F58001800FFF7EFFB012204211620FFF7C4F950
:101F6800012202210F20FFF7BFF918E000002041ED
:101F780000007A440000C8427B68DB686449181C8A
:101F8800FEF776FC031C181CFEF7CCFD03001800B6
:101F9800FFF7D0FB012202211620FFF7A5F9C04662
:101FA800012208211320FFF79FF9012201210F20A8
:101FB800FFF79AF97B6898687B684022995C7B6890
:101FC8003C229B5C1A00FFF769FC012201211820C2
:101FD800FFF78AF9012202211820FFF785F901226B
:101FE80008211820FFF780F9012208211C20FFF79B
:101FF8007BF9012208211A20FFF776F97B683F2236
:102008009B5C002B0FD07B685B6B1800FFF72AFDE9
:10201800012204211720FFF767F9012204211B2060
:10202800FFF762F90EE000220F211920FFF75CF993
:10203800002204211720FFF757F9002204211B2052
:10204800FFF752F9012204211820FFF74DF9012268
:1020580008210D20FFF748F9012208211720FFF772
:1020680043F97B683E229B5C002B18D0012201219A
:102078001F20FFF739F9012202211F20FFF734F949
:10208800012201211E20FFF72FF9012208211E201D
:10209800FFF72AF9012204211C20FFF725F97B68A4
:1020A8003D229B5C002B0ED0012204211F20FFF74C
:1020B8001BF9012208211F20FFF716F90122082128
:1020C8001B20FFF711F97B683C229B5C002B0AD090
:1020D800012202211B20FFF707F9012201211B2001
:1020E800FFF702F909E07B683F229B5C002B04D0D4
:1020F800012201211B20FFF7F7F83B681800FFF7C2
:10210800A9F9FEF7EBFFC046BD4608B080BDC04642
:102118000000204180B582B000AFFEF7C7FFFEF790
:10212800DDFFFA235B00180000F04EFBFFF744FBCD
:10213800FA23DB00180000F047FB00237B6026E051
:10214800FEF7B4FF7A681300DB009B1A1B019B1A89
:102158001800FFF73DF97A6813009B009B185B0095
:102168009B181800FFF776F97A681300DB009B1AB2
:102178001B019B1A1800FFF7DDFAFEF7AFFFC82313
:102188009B00180000F020FB7B6801337B607B68B4
:10219800092BD5DD1420FFF729FBFA23DB001800F3
:1021A80000F012FBFEF782FFFEF798FFFA235B00B0
:1021B800180000F009FBC046BD4602B080BD000013
:1021C800B0B596B000AF00F079FA00F04BF900F026
:1021D80091F9FEF753FFFFF79DFF3B1D18004423BD
:1021E8001A00002101F05CFA3B1D8B4A1A603B1D66
:1021F8008A4A9A603B1D8A4A1A613B1D2D225A63FE
:102208003B1D3C22012199543B1D3D22012199543B
:102218003B1D3E22012199543B1D3F220121995427
:102228003B1D4022022199545723FB1800221A70A3
:102238005623FB1801221A7000233B654F23FB1815
:1022480001221A704E257C19764B4021180000F0A7
:10225800F7FC030023705623FB181B78012B2CD1A5
:102268007B191B78002B28D1142000F0ADFA6D4B98
:102278004021180000F0E4FC031E1ED15723FB1870
:102288001B780133684A134004D5013B04225242AB
:10229800134301331A005723FB181A704F23FB18F6
:1022A80001221A70C0465F4B4021180000F0C8FC9C
:1022B800031EF8D0142000F087FA5623FB184E228C
:1022C800BA1812781A7000F075FA0300BB644F232D
:1022D800FB181B78002B07D1BA6C3B6DD21AFA2376
:1022E8009B009A4200D293E0BB6C3B654F23FB18DE
:1022F80000221A7080239B014A4A1900100000F03E
:10230800D9FC3B1D3E22012199543B1D3D22012150
:1023180099545723FB181B78032B5AD06FDC022BD8
:1023280042D06CDC002B02D0012B15D067E03B1D9E
:102338003C22012199543B1D3F22002199543B1D09
:102348003A4A9A613B1D3A4A1A603B1D394A9A60DB
:102358003B1D394ADA6052E03B1D3C220121995469
:102368003B1D3F22012199543B1D3D2201219954D7
:102378003B1D324A9A613B1D314ADA613B1D314AA5
:102388001A623B1D304A5A623B1D304A1A613B1D96
:102398002F4A5A613B1D2F4A9A603B1D2E4ADA602C
:1023A8003B1D4B225A632AE03B1D3C2201219954D4
:1023B8003B1D3F22012199543B1D1C4A9A613B1D3C
:1023C800264A1A603B1D264A5A613B1D224ADA609A
:1023D80015E03B1D3D22002199543B1D3F22002161
:1023E80099543B1D3C22012199543B1D0F4A9A6187
:1023F8003B1D104A9A603B1D0F4ADA60C0465723BE
:10240800FB181B785A1C3B1D11001800FFF778FBBE
:10241800142000F0D9F915E700806443CDCC5C4165
:102428009A196643000800500300008000008C439E
:1024380000805F433333374200006A420000204384
:10244800000034410000104200C0D544000066433B
:10245800DC050000CDCCE041000070410000644381
:102468005203000090B593B000AF14243B19180034
:1024780034231A00002101F013F93B1D1800102322
:102488001A00002101F00CF980239B00180000F0CD
:102498002DFC3B1902221A603B1980225200DA6097
:1024A8003B1900221A613B1940225A613B1900224C
:1024B800DA613B19180000F059FC031E01D000F046
:1024C8008BF83B1D07221A603B1D00225A603B1DFA
:1024D80000229A603B1D0022DA603B1D0021180093
:1024E80000F054FF031E01D000F076F8C046BD4648
:1024F80013B090BD90B589B000AF0C243B191800FB
:1025080014231A00002101F0CBF8314B5A6B304BE1
:1025180001210A435A632E4B5B6B01221340BB60B7
:10252800BB682B4B5A6B2A4B04210A435A63284B2E
:102538005B6B042213407B607B68A023DB050022D1
:102548000721180000F099FB80239B0121480022F5
:10255800190000F092FB3B1907221A603B1901226F
:102568005A603B1900229A603B190022DA603A1936
:10257800A023DB051100180000F0FEF921007B18EC
:10258800802292011A600C003B1901225A603B1903
:1025980000229A603B190022DA603B190D4A1900A3
:1025A800100000F0E9F921007B1840221A607B181E
:1025B80000225A607B1801229A607B18054A19008C
:1025C800100000F0D9F9C046BD4609B090BDC0461C
:1025D800001002400008005080B500AF72B6C04637
:1025E800C046FDE780B582B000AF0F4B1A6C0E4BAA
:1025F80001210A431A640C4B1B6C012213407B60B7
:102608007B68094BDA6B084B802149050A43DA637A
:10261800054BDA6B80235B0513403B603B68C04683
:10262800BD4602B080BDC0460010024080B500AF74
:10263800C046FDE780B500AFC046FDE780B500AFF6
:10264800C046BD4680BD80B500AFC046BD4680BD12
:1026580080B500AF00F09CF8C046BD4680BD80B58F
:1026680000AFC046BD4680BD0D488546FFF7F7FF61
:102678000C480D490D4A002302E0D458C4500433D5
:10268800C4188C42F9D30A4A0A4C002301E01360AB
:102698000432A242FBD301F00BF8FFF791FDFEE7ED
:1026A80000900020000000200C0000209438000852
:1026B8000C0000203C000020FEE7000080B582B03E
:1026C80000AFFB1D00221A700B4B1A680A4B8021C1
:1026D80049000A431A60032000F010F8031E03D0D3
:1026E800FB1D01221A7001E0FFF77CFFFB1D1B7820
:1026F8001800BD4602B080BD0020024090B585B0EC
:1027080000AF78600F23FB1800221A701D4B1B784E
:10271800002B2BD01C4B1C681A4B1B781900FA2372
:102728009800FDF7E9FC030019002000FDF7E4FC20
:102738000300180000F013F9031E12D17B68032B65
:102748000AD8796801235B420022180000F0F2F8E9
:102758000E4B7A681A600DE00F23FB1801221A70DD
:1027680008E00F23FB1801221A7003E00F23FB185F
:1027780001221A700F23FB181B781800BD4605B0FC
:1027880090BDC04608000020000000200400002082
:1027980080B500AF054B1B781A00054B1B68D21893
:1027A800034B1A60C046BD4680BDC04608000020E5
:1027B8003800002080B500AF024B1B681800BD46EA
:1027C80080BDC0463800002080B584B000AF786076
:1027D800FFF7F0FF0300BB607B68FB60FB68013319
:1027E80005D00A4B1B781A00FB689B18FB60C04693
:1027F800FFF7E0FF0200BB68D31AFA689A42F7D8DD
:10280800C046C046BD4604B080BDC0460800002092
:1028180090B583B000AF02003960FB1D1A70FB1D34
:102828001B787F2B28D82F4AFB1D1B785BB29B088F
:10283800C0339B009B58FA1D1278110003220A40EE
:10284800D200FF2191400A00D2431A4011003B6890
:102858009B01FF221A40FB1D1B781800032303402D
:10286800DB009A401F48FB1D1B785BB29B080A439C
:10287800C0339B001A5031E01B4AFB1D1B7819001E
:102888000F230B40083B9B0806339B00D3180433E7
:102898001B68FA1D1278110003220A40D200FF219A
:1028A80091400A00D2431A4011003B689B01FF2265
:1028B8001A40FB1D1B78180003230340DB009A40D5
:1028C8000948FB1D1B781C000F232340083B9B086D
:1028D8000A4306339B00C31804331A60C046BD463A
:1028E80003B090BD00E100E000ED00E080B582B0EB
:1028F80000AF78607B685A1E80235B049A4201D33C
:10290800012310E00A4B7A68013A5A6001235B42BE
:1029180003211800FFF77CFF054B00229A60044B47
:1029280007221A6000231800BD4602B080BDC046C9
:1029380010E000E080B584B000AFB9607A600F2184
:102948007B18021C1A70BA687B181B785BB21100DE
:102958001800FFF75DFFC046BD4604B080BD80B5D6
:1029680082B000AF78607B681800FFF7BFFF0300F4
:102978001800BD4602B080BD80B586B000AF786053
:10298800396000237B6147E13B681B6801217A6954
:1029980091400A001340FB60FB68002B00D138E12E
:1029A8003B685B6803221340012B05D03B685B68DA
:1029B80003221340022B30D17B689B683B617B6903
:1029C8005B0003229A401300DA433B6913403B61E2
:1029D8003B68DA687B695B009A4013003A691343E5
:1029E8003B617B683A699A607B685B683B6101225E
:1029F8007B699A401300DA433B6913403B613B68AB
:102A08005B681B0901221A407B699A4013003A69E6
:102A180013433B617B683A695A603B685B680322F1
:102A28001340032B17D07B68DB683B617B695B0035
:102A380003229A401300DA433B6913403B613B6829
:102A48009A687B695B009A4013003A6913433B61BB
:102A58007B683A69DA603B685B6803221340022BA3
:102A680023D17B69DA087B6808329200D3583B612E
:102A78007B69072213409B000F229A401300DA4318
:102A88003B6913403B613B681A697B6907210B402E
:102A98009B009A4013003A6913433B617B69DA084B
:102AA8007B68083292003969D1507B681B683B61AA
:102AB8007B695B0003229A401300DA433B691340A9
:102AC8003B613B685B6803221A407B695B009A4064
:102AD80013003A6913433B617B683A691A603B68A3
:102AE8005A68C0239B02134000D192E0504A7B6988
:102AF8009B0818339B009B583B617B69032213405A
:102B0800DB000F229A401300DA433B6913403B6114
:102B18007A68A023DB059A4213D07B68454A934222
:102B28000DD07B68444A934207D07B68434A93425E
:102B380001D1032306E0052304E0022302E0012378
:102B480000E000237A6903210A40D20093403A69E1
:102B580013433B6136497B699B0818339B003A69EC
:102B68005A50334B1B683B61FB68DA433B6913409F
:102B78003B613B685A6880235B03134003D03A6982
:102B8800FB6813433B612A4B3A691A60284B5B6820
:102B98003B61FB68DA433B6913403B613B685A6819
:102BA80080239B03134003D03A69FB6813433B61BE
:102BB8001F4B3A695A601E4A8423D3583B61FB680D
:102BC800DA433B6913403B613B685A6880239B02A8
:102BD800134003D03A69FB6813433B6114498422CC
:102BE8003B698B50124A8023D3583B61FB68DA4318
:102BF8003B6913403B613B685A6880235B02134082
:102C080003D03A69FB6813433B61094980223B6959
:102C18008B507B6901337B613B681A687B69DA40BA
:102C2800131E00D0B0E6C046C046BD4606B080BD03
:102C3800001802400004005000080050000C00502A
:102C480080B584B000AF78600A00BB1C1A807B682E
:102C58001B69BA1C1288134004D00F23FB180122E9
:102C68001A7003E00F23FB1800221A700F23FB18B9
:102C78001B781800BD4604B080BD80B582B000AF97
:102C8800786008001100BB1C021C1A807B1C0A1CFF
:102C98001A707B1C1B78002B04D0BB1C1A887B681D
:102CA8009A6103E0BB1C1A887B689A62C046BD46DD
:102CB80002B080BD80B584B000AF78600A00BB1C4C
:102CC8001A807B685B69FB60BB1C1B88FA68134031
:102CD8001A04FB68DB43B91C09880B401A437B685C
:102CE8009A61C046BD4604B080BD000080B584B07E
:102CF80000AF7860194B1B68194A13401900174B2D
:102D08007A680A431A607A6880239B009A421FD126
:102D1800144B1A6813005B009B185B0012491800DB
:102D2800FDF7EAF903000133FB6008E0FB68002BBC
:102D380003D0FB68013BFB6001E0032309E0074B7C
:102D48005A698023DB001A408023DB009A42EDD0C9
:102D580000231800BD4604B080BDC0460070004086
:102D6800FFF9FFFF0000002040420F0080B588B047
:102D780000AF78607B68002B01D10123F3E27B6808
:102D88001B680122134000D17CE0C34B9B683822AA
:102D98001340BB61C04BDB68032213407B61BB69F6
:102DA800102B02D17B69032B02D0BB69082B0BD1F6
:102DB800B94B1A6880239B02134062D07B685B681A
:102DC800002B5ED10123CEE27B685A6880235B0228
:102DD8009A4207D1B04B1A68AF4B802149020A4387
:102DE8001A6020E07B685A68A023DB029A420ED161
:102DF800A94B1A68A84B8021C9020A431A60A64B3E
:102E08001A68A54B802149020A431A600BE0A24BBD
:102E18001A68A14BA1490A401A609F4B1A689E4B39
:102E28009F490A401A607B685B68002B14D0FFF743
:102E3800C1FC03003B6108E0FFF7BCFC02003B69F2
:102E4800D31A642B01D903238DE2934B1A6880238C
:102E58009B021340F0D015E0FFF7ACFC03003B6188
:102E680008E0FFF7A7FC02003B69D31A642B01D9DD
:102E7800032378E2884B1A6880239B021340F0D121
:102E880000E0C0467B681B680222134000D199E02D
:102E9800814B9B6838221340BB617F4BDB68032260
:102EA80013407B61BB69102B02D17B69022B02D0D6
:102EB800BB69002B35D1784B1A688023DB0013409F
:102EC80005D07B68DB68002B01D101234BE2724BF4
:102ED8005B68744A134019007B685B691A026E4B81
:102EE8000A435A60BB69002B12D16B4B1B686E4AB0
:102EF800134019007B681A69674B0A431A60664BCE
:102F08001B68DB0A07221340684ADA40684B1A60DC
:102F1800684B1B681800FFF7F1FB031E51D0012313
:102F280021E27B68DB68002B30D05B4B1B685E4A74
:102F3800134019007B681A69574B0A431A60564BAD
:102F48001A68554B802149000A431A60FFF732FC82
:102F580003003B6108E0FFF72DFC02003B69D31A30
:102F6800022B01D90323FEE14B4B1A688023DB00B7
:102F78001340F0D0484B5B684A4A134019007B68FD
:102F88005B691A02444B0A435A601BE0424B1A68B9
:102F9800414B49490A401A60FFF70CFC03003B61AA
:102FA80008E0FFF707FC02003B69D31A022B01D99E
:102FB8000323D8E1384B1A688023DB001340F0D193
:102FC80000E0C0467B681B680822134047D0324B9C
:102FD8009B6838221340182B0AD12F4B1B6E0222F4
:102FE80013403CD07B689B69002B38D10123BAE1A0
:102FF8007B689B69002B19D0274B1A6E264B012141
:103008000A431A66FFF7D6FB03003B6108E0FFF7A7
:10301800D1FB02003B69D31A022B01D90323A2E199
:103028001D4B1B6E02221340F1D018E01A4B1A6E8A
:10303800194B01218A431A66FFF7BCFB03003B6169
:1030480008E0FFF7B7FB02003B69D31A022B01D94E
:10305800032388E1104B1B6E02221340F1D17B68D9
:103068001B680422134000D1C6E01F23FB1800226E
:103078001A70094B9B6838221340202B1ED1064B2F
:10308800DB6D0222134000D1B6E07B689B68002B01
:1030980000D0B1E0012366E100100240FFFFFEFF0F
:1030A800FFFFFBFFFF80FFFFFFC7FFFF0024F400C7
:1030B8000000002004000020FFFEFFFFAC4BDA6B8D
:1030C80080235B05134001D1012300E00023002B7E
:1030D80011D0A74BDA6BA64B802149050A43DA6366
:1030E800A34BDA6B80235B051340FB60FB681F234F
:1030F800FB1801221A709F4B1A6880235B0013404B
:103108001AD19C4B1A689B4B802149000A431A60CC
:10311800FFF750FB03003B6108E0FFF74BFB0200A1
:103128003B69D31A022B01D903231CE1914B1A687E
:1031380080235B001340F0D07B689B68012B06D18D
:103148008B4BDA6D8A4B01210A43DA651CE07B68F8
:103158009B68052B0CD1864BDA6D854B04210A43FD
:10316800DA65834BDA6D824B01210A43DA650BE09D
:103178007F4BDA6D7E4B01218A43DA657C4BDA6D31
:103188007B4B04218A43DA657B689B68002B14D04B
:10319800FFF710FB03003B6109E0FFF70BFB0200A0
:1031A8003B69D31A744A934201D90323DBE0704B7D
:1031B800DB6D02221340F0D013E0FFF7FBFA0300A7
:1031C8003B6109E0FFF7F6FA02003B69D31A6A4A45
:1031D800934201D90323C6E0654BDB6D02221340FD
:1031E800F0D11F23FB181B78012B05D1604BDA6B3C
:1031F8005F4B62490A40DA637B68DB69002B00D1C8
:10320800B0E05B4B9B6838221340102B00D178E06C
:103218007B68DB69022B53D1554B1A68544B5849CC
:103228000A401A60FFF7C6FA03003B6108E0FFF79F
:10323800C1FA02003B69D31A022B01D9032392E099
:103248004B4B1A6880239B041340F0D1484BDB6832
:103258004C4A134019007B681A6A7B685B6A1A43F8
:103268007B689B6A1B021A437B68DB6A1A437B688C
:103278001B6B1A433E4B0A43DA603D4B1A683C4BC2
:10328800802149040A431A60394BDA68384B802197
:1032980049050A43DA60FFF78DFA03003B6108E04D
:1032A800FFF788FA02003B69D31A022B01D90323DE
:1032B80059E02F4B1A6880239B041340F0D051E04B
:1032C8002B4B1A682A4B2E490A401A60FFF772FAEC
:1032D80003003B6108E0FFF76DFA02003B69D31A6F
:1032E800022B01D903233EE0214B1A6880239B045B
:1032F8001340F0D11E4BDA681D4B23490A40DA60AF
:1033080030E07B68DB69012B01D101232BE0184BEE
:10331800DB687B617B6903221A407B681B6A9A42DF
:103328001ED17B6970221A407B685B6A9A4217D16A
:103338007A69FE23DB011A407B689B6A1B029A426A
:103348000ED17A69F8239B031A407B68DB6A9A429C
:1033580006D17B695B0F5A077B681B6B9A4201D0C9
:10336800012300E000231800BD4608B080BDC04618
:10337800001002400070004088130000FFFFFFEFBC
:10338800FFFFFFFE8C80C11FFCFFFEEF80B584B0FD
:1033980000AF786039607B68002B01D10123E9E038
:1033A800764B1B68072213403A689A421ED9734B22
:1033B8001B68072293431900704B3A680A431A6046
:1033C800FFF7F8F90300FB6009E0FFF7F3F90200E3
:1033D800FB68D31A6A4A934201D90323CAE0674BB0
:1033E8001B68072213403A689A42EED17B681B6833
:1033F8000222134015D07B681B680422134006D0B4
:10340800604B9A685F4BE021C9010A439A605D4BA3
:103418009B685D4A134019007B689A68594B0A43B8
:103428009A607B681B680122134057D07B685B68F1
:10343800012B07D1534B1A6880239B0213402BD1D1
:10344800012397E07B685B68022B07D14D4B1A6814
:1034580080239B0413401FD101238BE07B685B68AA
:10346800002B07D1474B1A688023DB00134013D188
:1034780001237FE07B685B68032B06D1414B1B6E01
:103488000222134008D1012374E03E4BDB6D022277
:10349800134001D101236DE03A4B9B680722934307
:1034A80019007B685A68374B0A439A60FFF782F91C
:1034B8000300FB6009E0FFF77DF90200FB68D31AFF
:1034C8002F4A934201D9032354E02E4B9B6838229C
:1034D8001A407B685B68DB009A42ECD1274B1B687B
:1034E800072213403A689A421ED2244B1B680722CF
:1034F80093431900214B3A680A431A60FFF75AF9B7
:103508000300FB6009E0FFF755F90200FB68D31AD6
:103518001B4A934201D903232CE0184B1B6807224E
:1035280013403A689A42EED17B681B680422134024
:1035380009D0144B9B68154A134019007B68DA6858
:10354800104B0A439A6000F029F801000D4B9B6864
:103558001B0A0F221A400E4B9200D3581F22134009
:103568000A00DA400B4B1A600B4B1B681800FFF778
:10357800C5F803001800BD4604B080BD0020024015
:103588008813000000100240FFF0FFFFFF8FFFFFCD
:103598004C380008000000200400002080B586B0E8
:1035A80000AF3C4B9B68382213400FD1394B1B6846
:1035B800DB0A0722134001229A4013003B60396856
:1035C8003548FCF799FD03003B615DE0314B9B6892
:1035D80038221340082B02D1304B3B6154E02D4B6D
:1035E8009B6838221340102B38D12A4BDB68032202
:1035F8001340FB60274BDB681B090722134001338C
:10360800BB60FB68032B0DD1B9682448FCF774FD37
:10361800030019001F4BDB681B0A7F2213404B4332
:103628007B610DE0B9681C48FCF766FD03001900D2
:10363800184BDB681B0A7F2213404B437B61C04653
:10364800144BDB685B0F0722134001337B607968FA
:103658007869FCF751FD03003B6115E00D4B9B6851
:1036680038221340202B03D180231B023B610BE03F
:10367800084B9B6838221340182B03D1FA23DB012F
:103688003B6101E000233B613B691800BD4606B081
:1036980080BDC046001002400024F40000127A00E9
:1036A80003008218934200D1704719700133F9E77B
:1036B80070B500260C4C0D4D641BA410A64209D110
:1036C800002600F019F80A4C0A4D641BA410A64203
:1036D80005D170BDB300EB5898470136EEE7B3004B
:1036E800EB5898470136F2E78C3800088C38000808
:1036F800903800088C380008F8B5C046F8BC08BCFB
:103708009E467047F8B5C046F8BC08BC9E46704750
:10371800720600089E0500088805000804060008CF
:10372800880500083806000888050008040600080F
:103738009E0500089E0500083806000804060008D3
:10374800740500087405000874050008420600089E
:103758009E0500089E05000888050008DE0600088A
:10376800880500083806000888050008DE060008F5
:103778009E0500089E05000838060008DE060008B9
:1037880074050008740500087405000803000301A7
:1037980003020203020202000201050005010502FC
:1037A80004030402040004010700070107020603DA
:1037B8000602060006010B000B010B020A030A02AF
:1037C8000A000A010D000D010D020C030C020C0089
:1037D8000C01110011011102100310021000100158
:1037E8001300130113021203120212001201150032
:1037F800150115021403140214001401010101013A
:1038080001010000010100000000010100010100A8
:103818000101010101000001000101000001010195
:103828000001010001010100010101010101010183
:103838000000000001010101010101010101010075
:10384800010100000000000000000000000000006E
:103858000000000000000000000000000000000060
:10386800000000000100000002000000030000004A
:103878000400000006000000070000000800000027
:043888000900000033
:04388C00E10000084F
:04389000B900000873
:0C3894000024F40004000000010000000B
:040000050800267158
:00000001FF
