:020000040800F2
:1000000000900020F5040008E1040008E304000863
:1000100000000000000000000000000000000000E0
:10002000000000000000000000000000E5040008DF
:100030000000000000000000E7040008E9040008D8
:1000400045050008000000004505000845050008BA
:100050004505000845050008450500084505000858
:10006000000000004505000845050008450500089A
:10007000450500084505000845050008000000008A
:100080004505000845050008450500084505000828
:100090004505000845050008450500084505000818
:1000A0004505000845050008450500084505000808
:0800B0004505000845050008A4
:1000B80010B5064C2378002B07D1054B002B02D036
:1000C800044800E000BF0123237010BD0C0000208D
:1000D80000000000E00E0008044B10B5002B03D010
:1000E8000349044800E000BF10BDC04600000000FE
:1000F80010000020E00E000802B4714649084900CB
:10010800095C49008E4402BC7047C046002243087F
:100118008B4274D303098B425FD3030A8B4244D3C7
:10012800030B8B4228D3030C8B420DD3FF22090209
:1001380012BA030C8B4202D31212090265D0030BC8
:100148008B4219D300E0090AC30B8B4201D3CB03BE
:10015800C01A5241830B8B4201D38B03C01A524100
:10016800430B8B4201D34B03C01A5241030B8B4202
:1001780001D30B03C01A5241C30A8B4201D3CB02ED
:10018800C01A5241830A8B4201D38B02C01A5241D2
:10019800430A8B4201D34B02C01A5241030A8B42D5
:1001A80001D30B02C01A5241CDD2C3098B4201D3ED
:1001B800CB01C01A524183098B4201D38B01C01A6B
:1001C800524143098B4201D34B01C01A52410309E2
:1001D8008B4201D30B01C01A5241C3088B4201D391
:1001E800CB00C01A524183088B4201D38B00C01A3E
:1001F800524143088B4201D34B00C01A5241411A65
:1002080000D20146524110467047FFE701B5002071
:1002180000F006F802BDC0460029F7D076E770471F
:100228007047C04607B502008021114800F0E4FA83
:100238008021A0200022C900C00500F0DDFA0023BB
:100248000093009B312B0CDD8021A0200122C900E6
:10025800C00500F0D1FA00230193019B312B03DD87
:1002680007BD009B0133EBE7019B0133F4E7C04670
:100278000008005070B580210500A0200022090167
:10028800C00500F0B9FA0120FFF7CCFF0020FFF706
:10029800C9FF0020FFF7C6FF0724012628002041D8
:1002A8003040FFF7BFFF013CF8D20020FFF7BAFF4C
:1002B8008021A02001220901C00500F09DFA70BD2F
:1002C80010B510220021024800F0DAFD10BDC0462A
:1002D80028000020F0B5A02580270124802687B0BB
:1002E8000C22ED05002103A800F0CAFD3F012800FB
:1002F80001A9F6000294019700F0C6F9280001A9A7
:10030800019600F0C1F9802301A91048019300F07B
:10031800BBF922003900280000F06EFA22003100F3
:10032800280000F069FA0020FFF7A4FF1820FFF763
:10033800A1FF2920FFF79EFF2000FFF79BFF032066
:10034800FFF798FFFFF7BCFF07B0F0BD00080050AB
:1003580000B593B03422002105A800F091FD0021DA
:10036800102201A800F08CFD8020800000F052FAD5
:1003780002230593FE3340220893002305A809931E
:100388000A920C9300F072FA011E01D072B6FEE7D1
:10039800072302900390049001A8019300F0C6FC83
:1003A800002801D072B6FEE713B000BDF0B50124F5
:1003B8008BB000F0EDF8FFF7CBFF1422002105A861
:1003C80000F05EFD0421A0208026354BB6015A6B53
:1003D800C00522435A635A6B002522400392039AB0
:1003E8005A6B14270A435A635B6B00220B40049331
:1003F8000331049B00F000FA00223100294800F084
:10040800FBF9A020072305A9C005059306940795C5
:10041800089500F039F9234805A90596069407952B
:10042800089500F031F940231E4805A90593069563
:100438000794260000F028F9FFF74CFF40211948DF
:1004480000F0D4F90190012E14D1002812D13800FF
:1004580000F0C4F84021134800F0C8F9002809D179
:100468004021104800F0C2F90028F9D0380000F007
:10047800B5F8012400F0ACF80600002C04D1FA22EB
:10048800431B9200934205D380210648890100F05E
:10049800B9F93500380000F0A1F80024019ECDE735
:1004A800001002400008005001210A4B82B01A6C6B
:1004B8000A431A641A6C0A4080210092009ADA6B87
:1004C80049050A43DA63DB6B0B400193019B02B0D9
:1004D8007047C04600100240FEE7FEE770477047CD
:1004E80010B500F069F810BD704700000D4885464A
:1004F800FFF7FAFF0C480D490D4A002302E0D458D3
:10050800C4500433C4188C42F9D30A4A0A4C002355
:1005180001E013600432A242FBD300F0B9FCFFF7FC
:1005280045FFFEE700900020000000200C0000209E
:10053800400F00080C0000203C000020FEE70000EF
:1005480070B5104B05001978002901D1012070BD44
:10055800FA208000FFF7DAFD0B4C01002068FFF756
:10056800D5FD00F077F8041EF0D1032DEED8020077
:1005780001202900404200F043F8044B20001D6090
:10058800E5E7C04604000020000000200800002025
:100598008023084A5B00116810B50B4303201360E1
:1005A800FFF7CEFF041E03D1FFF77EFF200010BD2A
:1005B8000124FBE700200240034A044B11681B7822
:1005C8005B1813607047C046380000200400002004
:1005D800014B18687047C0463800002070B5040009
:1005E800FFF7F6FF0500631C02D0044B1B78E418E4
:1005F800FFF7EEFF401BA042FAD370BD04000020B5
:1006080010B5FF2403220B0021000240D2009140C4
:100618009B012340C943934000280ADBC0240B4AAE
:10062800800880008018A40002590A40134303512F
:1006380010BD0F2210400838054A80088000801835
:10064800C26911401943C161F2E7C04600E100E008
:1006580000ED00E08022431E5204012093420DD297
:10066800C021074A07485360036A09061B021B0A90
:100678000B43036200200723906013607047C04655
:1006880010E000E000ED00E00023F0B585B00A6856
:100698001400DC4001D105B0F0BD012514009D40D7
:1006A8002C4000942A4200D191E04A685F009446A9
:1006B8000322644622400324BC40E4430194541EB0
:1006C800012C2ED88668019C2640CC68BC40344357
:1006D800846044680126AC432500644624093440FC
:1006E8009C402C434460C568019C25408C68BC40F4
:1006F8002C43C460022A16D107250F261D40AD00E1
:10070800AE40DC08A40004190294246A039626006B
:10071800039CA64334000E69AE402643029C266221
:1007280001E0032ADFD1BA400468019D25402A432D
:10073800C02402606246A402224248D0254A03250A
:100748009C08A400A4180F221D40ED00AA40A02771
:10075800266EFF0596430022B8420CD01E4F013288
:10076800B84208D01D4F0132B84204D01C4F0332A2
:10077800B84200D1023AAA40674632432266154C75
:10078800009A2668009DD2433543FF0201D4350004
:100798001540674625606668009D3543BF0201D451
:1007A80035001540674665600E4C009DE66F354381
:1007B800BF0301D4350015406746E5670A4C009E23
:1007C800E56F2E43FF0301D415402E00E667013381
:1007D8005DE7C046001802400004005000080050C1
:1007E800000C005008180240041802400069084034
:1007F800431E9841C0B27047002A01D081617047FA
:100808008162FCE7426913000B401B0491430B43D0
:100818008361704710B5114C1149236802000B40E1
:1008280003432360802300209B009A420ED10D4B86
:100838000D49186806235843FFF768FC8022431CBB
:10084800D200616908001040114200D110BD002B90
:1008580001D0013BF5E70320F8E7C04600700040EF
:10086800FFF9FFFF0000002040420F00F0B5040030
:1008780085B0002802D1012005B0F0BD0368DB0770
:1008880010D423689B075CD423681B0700D5C1E0FC
:1008980023685B0700D5F2E0E369002B00D079E11B
:1008A8000020E9E73822AF4DAB681340EA68102B07
:1008B80009D1D3439B0708D12B689B03E1D5636813
:1008C800002BDED1D7E7082BF6D0802263685202CE
:1008D800934211D12A6813432B60FFF779FE8027D2
:1008E8000600BF022B683B42CBD1FFF771FE801B8D
:1008F8006428F7D90320BFE7A021C9028B4208D199
:1009080080232968DB020B432B602B681A432A607B
:10091800E3E72A6894490A402A602A6893490A400A
:100928002A60002BD9D1FFF753FE80270600BF02AB
:100938002B683B42A5D0FFF74BFE801B6428F7D9F4
:10094800D8E73822874DAB681340EA68102B28D1C6
:1009580003210A40022A26D12A68520503D5E268F3
:10096800002A00D187E7696862698148120201405C
:100978000A436A60002B0CD12B687E4A7E491340DB
:10098800226913432B602B687C4A9B045B0FDA4077
:100998000A607B4B1868FFF7D3FD002800D173E786
:1009A80069E7002BD8D0E368002B20D02B68714A68
:1009B800802713402269FF0013432B6080232A6895
:1009C8005B0013432B60FFF703FE06002B683B42D6
:1009D80007D06A68636966491B020A4013436B6063
:1009E80052E7FFF7F5FD801B0228EFD982E72B6855
:1009F800644A802713402B60FFF7EAFD0600FF00DA
:100A08002B683B4200D13FE7FFF7E2FD801B02283D
:100A1800F6D96FE73822534DAB681340182B08D12D
:100A28002B6E9B0700D433E7A369002B00D02FE778
:100A380021E7A2690123002A10D02A6E0227134356
:100A48002B66FFF7C5FD06002B6E3B4200D01FE763
:100A5800FFF7BEFD801B0228F6D94BE72A6E022756
:100A68009A432A66FFF7B4FD06002B6E3B4200D17D
:100A78000EE7FFF7ADFD801B0228F6D93AE73822CA
:100A8800384DAB681340202B08D1EB6D9B0700D481
:100A980002E7A368002B00D0FEE6ECE680220021E6
:100AA800EB6B52050091134208D1EB6B1343EB63D8
:100AB800EB6B13400393039B012300938027324E73
:100AC8007F0033683B4215D0A368012B22D1EA6D21
:100AD8001343EB65FFF77CFD02270600EB6D3B42F5
:100AE80038D0009B012B00D0D6E6EB6B274A134089
:100AF800EB63D1E633683B433360FFF769FD019050
:100B080033683B42E0D1FFF763FD019BC01A02281E
:100B1800F6D9EFE6EA6D052B05D1013B1343EB65EA
:100B2800EA6D0123D4E701218A43EA65EA6D0331BE
:100B38008A43EA65002BCDD1FFF74AFD022706005C
:100B4800EB6D3B42CDD0FFF743FD114B801B984224
:100B5800F6D9CFE6FFF73CFD0D4B801B9842BDD977
:100B6800C8E6C04600100240FFFFFEFFFFFFFBFF84
:100B7800FF80FFFFFFC7FFFF000000200024F400F4
:100B880008000020FFFEFFFF00700040FFFFFFEF9E
:100B98008813000038213F4DAA680A40102A51D016
:100BA8003D4A022B38D12B68802713402B60FFF772
:100BB8000FFD0600BF042B683B4227D1616A236AF8
:100BC800EA680B43354980260A401343E26AB604B3
:100BD8001343226B1343A26A12021343EB60802370
:100BE8002A685B0413432B608023EA685B05134380
:100BF800EB60FFF7EDFC04002B68334200D04FE6B2
:100C0800FFF7E6FC001B0228F6D973E6FFF7E0FCC5
:100C1800801B0228CFD96DE62B68802613402B60F5
:100C2800FFF7D6FC0400B6042B68334204D1EB6806
:100C38001B4A1340EB6033E6FFF7CAFC001B02288F
:100C4800F2D957E6012B00D115E60322E868216A9C
:100C580002408A4200D00EE67022616A02408A424F
:100C680000D008E6FE21A26AC901014012029142A1
:100C780000D000E6F822E16A920302408A4200D0DE
:100C8800F9E5236B400F4007C01A431E9841C0B2D4
:100C9800F2E5C04600100240FFFFFFFE8C80C11F36
:100CA800FCFFFEEF382370B51D4CA2681A4205D12F
:100CB80023681C489B045B0FD84070BDA2681A408B
:100CC800082A27D0A2681A40102A17D1E368E168D9
:100CD800DB43E5684906490F6F322D0A013115409B
:100CE8009B0709D11048FFF711FAE1686843490FDB
:100CF8000131FFF70BFAE0E70A48F4E7A2681A4067
:100D0800202A09D0A26800201340182BD5D1FA2038
:100D1800C001D2E70448D0E780200002CDE7C046F2
:100D2800001002400024F40000127A00F7B5040015
:100D38000D00002801D10120FEBD0727484E336869
:100D48003B408B422AD3226893073BD4D20748D42E
:100D5800072733683B40AB420AD93368BB432B4370
:100D68003360FFF735FC019033683B40AB4268D1F4
:100D780023683C4D5B076CD4FFF794FFAB683A4996
:100D88001B051B0F9B005B581F210B40D840374A9F
:100D9800374B10601868FFF7D3FBCDE73368BB43C8
:100DA8000B433360FFF714FC019033683B40AB42C0
:100DB800C9D0FFF70DFC019BC01A2E4B9842F4D9FD
:100DC8000320B9E72749530704D5E0238868DB01E6
:100DD80003438B608B6828480340A06803438B60FB
:100DE800B4E760681F4F032829D8FFF785F9200268
:100DF8001C243B689B039ED50722BB68934303438F
:100E0800BB60FFF7E5FB01903823BA681A406368B6
:100E1800DB009A429CD0FFF7DBFB019BC01A154B05
:100E28009842F1D9CCE73B689B01E5D483E73B685E
:100E38005B05E1D47FE73B6E9B07DDD47BE7FB6D69
:100E4800FAE7FFF7C5FB019BC01A0A4B98428BD9FA
:100E5800B6E7AB68094A1340E2681343AB608BE717
:100E68000020024000100240F80E00080000002098
:100E78000800002088130000FFF0FFFFFF8FFFFF2E
:100E880003008218934200D1704719700133F9E7C3
:100E980070B500260C4C0D4D641BA410A64209D158
:100EA800002600F019F80A4C0A4D641BA410A6424B
:100EB80005D170BDB300EB5898470136EEE7B30093
:100EC800EB5898470136F2E7380F0008380F00084A
:100ED8003C0F0008380F0008F8B5C046F8BC08BC3D
:100EE8009E467047F8B5C046F8BC08BC9E46704799
:100EF80000000000000000000000000000000000EA
:100F080000000000000000000000000000000000D9
:100F180001000000020000000300000004000000BF
:100F2800060000000700000008000000090000009B
:040F3800E1000008CC
:040F3C00B9000008F0
:0C0F40000024F400010000000400000088
:04000005080004F5F6
:00000001FF
